:020000040800F2
:10000000982A00200D010008DD200008610E00087C
:10001000D9200008DB030008152D000800000000AF
:10002000000000000000000000000000A122000805
:100030002D0400080000000065210008BD24000810
:1000400027010008270100082701000827010008F0
:1000500027010008270100082701000827010008E0
:1000600027010008270100082701000827010008D0
:1000700027010008270100082701000827010008C0
:1000800027010008270100082701000827010008B0
:1000900027010008270100082701000827010008A0
:1000A0002701000821250008270100082701000872
:1000B000552500086D2500082701000827010008C4
:1000C0002701000827010008270100082701000870
:1000D000270100086127000827010008D927000828
:1000E000270100082701000827010008DFF810D0C9
:1000F00000F0E0F800480047A5330008AFF30080A7
:10010000982A002080F3088870470000064880473E
:1001100006480047FEE7FEE7FEE7FEE7FEE7FEE7EC
:10012000FEE7FEE7FEE7FEE7C1240008ED00000859
:1001300040EA01039B0703D009E008C9121F08C069
:10014000042AFAD203E011F8013B00F8013B521EE9
:10015000F9D27047D2B201E000F8012B491EFBD260
:1001600070470022F6E710B513460A4604461946C2
:10017000FFF7F0FF204610BD30B505462A460B4676
:1001800012F8010B13F8014B08B1A042F8D01CB1D2
:10019000002802D06D1CF1E7284630BD421C10F843
:1001A000011B0029FBD1801A704710B5002200E026
:1001B000521C835C8C5CA34201D1002BF8D1D8B2D5
:1001C000E1B2401A10BD70B5064602F003FE0468A5
:1001D00005460A220021304600F033F82C6070BD3D
:1001E0002DE9F05F0546002092469B46884606466C
:1001F000814640241BE0284641464746224600F0FF
:100200007AF853465A46C01A914110D311461846FF
:10021000224600F061F82D1A67EB01084F4622468E
:100220000120002100F058F817EB00094E41201E74
:10023000A4F10104DFDC484631462A464346BDE8C6
:10024000F09F2DE9F04791460F4680460446002670
:1002500014F8015B2DB100F05FF80068405DC00745
:10026000F6D12B2D02D02D2D18D0641E4A463946CA
:10027000204600F055F827B13968A14201D1C7F8EE
:10028000008071054FF002040BD54042002803DDC9
:1002900002F0A0FD0460A007BDE8F08746F4806688
:1002A000E4E70028F8DA02F095FD04606FF0004002
:1002B000F2E70000064C074D06E0E06840F001035D
:1002C00094E8070098471034AC42F6D3FFF712FFCA
:1002D000F438000814390008202A04DB203A00FA18
:1002E00002F1002070479140C2F1200320FA03F38D
:1002F000194390407047202A04DB203A21FA02F08B
:100300000021704721FA02F3D040C2F1200291404F
:10031000084319467047000000487047B837000886
:100320002DE9F05F82460078002715468B460AF1DA
:100330000104B946302801D09DB113E014F8010B37
:100340000127782803D0582801D045B10AE00DB123
:10035000102D07D10027102514F8010B02E0082505
:1003600000E00A250026B0460EE005FB080005FB6C
:1003700006F1012701EB10461FFA80F8B6F5803F21
:1003800000D3B94614F8010B294600F018F80028EC
:10039000EBDABBF1000F05D00FB1641E00E054464C
:1003A000CBF80040B9F1000F06D002F013FD022196
:1003B0000160C81EBDE8F09F48EA0640FAE73A2807
:1003C00000D2303820F02002412A01D3A2F13700B8
:1003D000884201D34FF0FF30704700BFFEE70000B6
:1003E000F0B59BB005460E46174601A800F0B8FDD3
:1003F0003246294601A801F0AFF917A901A800F07B
:1004000085FD002408E017A90B5D07EB440005A259
:10041000032102F0C5FC641C102CF4DB00201BB08F
:10042000F0BD000025303278000000007047000069
:1004300010B56FF0040002F02DF80A480068C00003
:100440000949B0FBF1F0094908700846007800EB53
:100450004001C1EBC0104FF6FF7101EAC000044932
:10046000088010BD1800002000127A00140000203F
:10047000160000200146114A12884A434FF0E0233B
:100480005A6100229A611A46126942F001021A6109
:1004900000BF4FF0E022106900F001021AB100F431
:1004A0008032002AF5D04FF0E022126922F00102DA
:1004B0004FF0E0231A6100229A6170471600002075
:1004C0002DE9FE43044600260027B0462068B0F51B
:1004D000C04F71D8502304F51A7241A143A000F017
:1004E000DDF9002872D12088C0F3090030B901215C
:1004F0002068C1EB902000F0FF0802E02068C0F304
:10050000872800255BE000203A49087000213A481E
:10051000416041F20101A0F6FF70FFF722FE681C66
:100520000121C1EB8020A90204F51A7204F17003C5
:10053000CDE90021029031A24FF4007104F55A7008
:1005400002F02EFC04F55A713A4802F02BFB0AE047
:100550006420FFF78FFF781CC0B207461E2802DB1D
:100560000020BDE8FE83234800780028F0D0002753
:1005700031A12048401CFFF7FFFDC0B12EA11D484E
:10058000401CFFF7F9FD06462D4901EB85204A1472
:10059000311D02F0C1FE681C0121C1EB8020AB02BD
:1005A00000906A1C27A0216802F0EAFB06E031A057
:1005B00002F0E6FB0120D4E70DE007E06D1C4545A5
:1005C000A1DD31A002F0DCFB0320CAE732A002F07B
:1005D000D7FB0220C5E735A002F0D2FB0420C0E71C
:1005E00031323334343332310000000074657374B7
:1005F000313233008C1000208C20002047455420DD
:10060000687474703A2F2F257320485454502F313A
:100610002E310D0A486F73743A25730D0A52616EBC
:1006200067653A62797465733D25642D25640D0A0A
:100630000D0A0000004800400D0A0D0A00000000ED
:1006400000A00008D7DCB4F3D0A13A256420427999
:100650007465732CD0B4C8EBB5DA2564B0FC2C25D6
:10066000642D2564204279746573D2D1D0B4C8EB6F
:100670000D0A0000CEB4D5D2B5BDCDB7B2BFCAFD0C
:10068000BEDD0D0A00000000B9CCBCFECFC2D4D83C
:10069000B3C9B9A60D0A0000BDF8C8EBCDB8B4AB1C
:1006A000C4A3CABDCAA7B0DC0D0A00004F5441B9AB
:1006B000CCBCFEB4F3D0A1B3ACB3F6B7B6CEA70DA5
:1006C0000A00000030B59BB004460D46234609A23F
:1006D000642102A8009502F063FB0A2364220CA1A6
:1006E00002A800F06BF810B101201BB030BD002053
:1006F000FBE7000041542B43495053544152543DB1
:1007000022544350222C222573222C25640D0A00EA
:100710004F4B000030B58BB004460D46234609A26E
:10072000282101A8009502F03BFB05234FF4E1626C
:100730000AA101A800F042F810B101200BB030BDB1
:100740000020FBE741542B43574A41503D2225737B
:10075000222C222573220D0A000000004F4B0000BE
:1007600010B501234FF4E16204A106A000F026F8C1
:1007700008B1012010BD0020FCE70000434C4F539E
:10078000450000002B2B2B0010B508A10A4802F0F1
:1007900009FA4FF47A70FFF76DFE4FF47A70FFF7A5
:1007A00069FE4FF47A70FFF765FE10BD41542B527D
:1007B00053540D0A00000000004800402DE9F047A6
:1007C0000546894616461C4600273CE00020204985
:1007D000087000211F48416041F20101A0F6FF703E
:1007E000FFF7BFFC29461C4802F0DCF94FF0000877
:1007F00024E017480078012819D1002115484268E3
:10080000A0F6FF7081544946FFF7B6FC70B1002096
:100810000F49087000210F48416041F20101A0F624
:10082000FF70FFF79EFC0020BDE8F08708E030462F
:10083000FFF720FE08F1010000F0FF08A045D8DB1B
:1008400000BF781CC7B2A742C0DB0120ECE7000064
:100850008C1000208C2000200048004010B586B08D
:100860000446234608A2142101A802F099FA0A239B
:100870001A4609A101A8FFF7A1FF10B1012006B097
:1008800010BD0020FBE7000041542B43574D4F445F
:10089000453D25640D0A00004F4B00002DE9F04155
:1008A00006460F4614461D46FFF75AFF0A231A460E
:1008B0001DA11EA0FFF782FF10B10120BDE8F0814D
:1008C0000120FFF7CBFF08B10220F7E7FFF75CFF3D
:1008D0000A231A4614A117A0FFF770FF08B10320DE
:1008E000ECE739463046FFF715FF08B10420E5E78D
:1008F0000A231A460CA111A0FFF760FF08B10520DA
:10090000DCE729462046FFF7DDFE08B10620D5E7E3
:100910000A231A460DA10EA0FFF750FF08B10720C9
:10092000CCE70020CAE700004F4B000041540D0AFD
:1009300000000000415445300D0A000041542B4393
:1009400049504D4F44453D310D0A00003E00000026
:1009500041542B43495053454E440D0A00000000BA
:100960000149C860704700000020024030B50446CD
:1009700004254FF4302000F085F80546042D17D1EA
:100980000C48006940F002000A49086108464461C9
:10099000006940F0400008614FF4302000F072F828
:1009A00005460448006941F6FD71084001490861A7
:1009B000284630BD0020024004200B49C96801F0E0
:1009C000010109B101200EE00749C96801F00401E5
:1009D00009B1022007E00449C96801F0100109B11A
:1009E000032000E004207047002002400348006913
:1009F00040F080000149086170470000002002407B
:100A000078B506460C46042500200090E80200F068
:100A100039F80546042D24D11348006940F001003F
:100A2000114908613480E80200F02CF80546042DD5
:100A300010D1B01C0090200C00990880E80200F052
:100A400021F805460848006941F6FE71084006494C
:100A5000086106E00448006941F6FE710840024959
:100A60000861284678BD0000002002400248034982
:100A700048600348486070472301674500200240F2
:100A8000AB89EFCD00B502460423FFF795FF03467F
:100A900003E0FFF791FF0346521E012B01D1002A0C
:100AA000F7D102B90523184600BD2DE9F0410246F1
:100AB00000250026002000230024002791F803C011
:100AC0000CF00F0591F803C00CF0100CBCF1000FF6
:100AD00003D091F802C04CEA050591F800C0BCF1C2
:100AE000000F31D0146800202BE04FF0010C0CFAFD
:100AF00000F3B1F800C00CEA03069E4220D1830047
:100B00004FF00F0C0CFA03F7BC4305FA03FC4CEA58
:100B1000040491F803C0BCF1280F06D14FF0010C7A
:100B20000CFA00FCC2F814C00AE091F803C0BCF152
:100B3000480F05D14FF0010C0CFA00FCC2F810C0B0
:100B4000401C0828D1D31460B1F800C0BCF1FF0FDD
:100B500034DD546800202EE000F1080C4FF001084D
:100B600008FA0CF3B1F800C00CEA03069E4221D14A
:100B700083004FF00F0C0CFA03F7BC4305FA03FC9B
:100B80004CEA040491F803C0BCF1280F05D100F130
:100B9000080C08FA0CF8C2F8148091F803C0BCF1F4
:100BA000480F07D100F1080C4FF0010808FA0CF8C3
:100BB000C2F81080401C0828CED35460BDE8F081F4
:100BC00010B5044614B10120234908702348006879
:100BD00050B92248006838B120481030006818B178
:100BE0001E4814300068F8B91B480078E0B10020B6
:100BF000194908700A20FFF73DFC1848006808B141
:100C0000012010BD1548001D006808B90220F8E752
:100C100012481030006808B90320F2E70F4814307A
:100C20000068B0B90420ECE70C48006888B90B48AC
:100C3000001D006868B109481030006848B10748D5
:100C40001430006828B10448007810B90120024926
:100C500008700020D5E7000030000020000121428C
:100C600010B59AB0044600200B49087000210B48CB
:100C700041604FF48051A0F6FF70FFF772FA04F55F
:100C8000AD6307A2642101A802F08AF801A912A0AD
:100C900001F0A2F91AB010BD8C1000208C200020A9
:100CA0007B2274797065223A20227265706F7274AB
:100CB0005F76657273696F6E222C227265706F7237
:100CC00074223A7B2276657273696F6E223A202213
:100CD0002573227D7D000000246F74612F72657082
:100CE0006F72742F5A4430465948314F4E502F740A
:100CF000657374002DE9F0419AB007460D46002453
:100D00000026A04644A13846FFF736FAC0B142A1FA
:100D10003846FFF731FA044642A12046FFF72CFA85
:100D20000646301BA0F10B0104F10C033EA201A802
:100D300002F036F801A8FFF746FA28604FF00108E4
:100D40003AA13846FFF718FAA0B138A13846FFF7A4
:100D500013FA044633A12046FFF70EFA0646301B6D
:100D6000A0F10A0104F10A032FA2281D02F018F8CD
:100D70004FF0010830A13846FFF7FEF998B12EA1D7
:100D80003846FFF7F9F9044626A12046FFF7F4F9A3
:100D90000646301BC11FE31D23A205F1680001F0C8
:100DA000FFFF4FF0010826A105F16800FFF7E4F905
:100DB000A8B123A13846FFF7DFF9044623A104F1C7
:100DC0000800FFF7D9F90646301BC11F04F10803DC
:100DD00015A205F51A7001F0E3FF4FF001081CA100
:100DE0003846FFF7C9F998B119A13846FFF7C4F999
:100DF00004461AA12046FFF7BFF90646301BA0F1B2
:100E00000B0104F10B0308A205F5AF6001F0C8FF68
:100E100040461AB0BDE8F0812266696C655F73696F
:100E20007A6522002C00000025730000226D6435D5
:100E300073756D22000000002275726C22000000A4
:100E400068747470733A2F2F000000002F000000A8
:100E50002276657273696F6E220000007D000000CB
:100E600000BFFEE708B50121042001F08DF94820FC
:100E70008DF803003220ADF8000069460648FFF700
:100E800014FE28208DF803000120ADF8000069460B
:100E90000148FFF70AFE08BD0008014070B503468F
:100EA0000024002010E00E5C451C4D5D46EA05263E
:100EB000851C4D5D46EA0546C51C4D5D46EA056547
:100EC00043F82450641C001D9042ECD370BD70B5F3
:100ED000034614460022002015E011F822501D544C
:100EE00031F82250C5F30726451C5E5551F82250B3
:100EF000C5F30746851C5E5551F822502D0EC61CC1
:100F00009D55521C001DA042E7D370BD2DE9FC4148
:100F100004460E46002500272088C0F3C505382D5D
:100F200002D2C5F1380001E0C5F178000746082279
:100F300021466846FFF7CBFF3A460849204600F0B5
:100F40000BFC08226946204600F006FC102204F142
:100F500008013046FFF7BBFFBDE8FC8131000020EF
:100F600000210160416005498160054AC260CA43B1
:100F70000261034AD2434261704700000123456782
:100F800089ABCDEF2DE9F043C0B080468946D8F853
:100F90000040D8F80450D8F80860D8F80C70402207
:100FA00049466846FFF77AFF05EA060027EA050189
:100FB000084300990844FE4908440444E00140EA1B
:100FC00054642C4404EA050026EA0401084301990C
:100FD0000844F84908440744380340EA17572744AF
:100FE00007EA040025EA0701084302990844F24988
:100FF00008440644700440EAD6363E4406EA070038
:1010000024EA0601084303990844EC4908440544CE
:10101000A80540EA9525354405EA060027EA0501BA
:10102000084304990844E64908440444E00140EABE
:1010300054642C4404EA050026EA04010843059997
:101040000844E04908440744380340EA1757274456
:1010500007EA040025EA0701084306990844DA492B
:1010600008440644700440EAD6363E4406EA0700C7
:1010700024EA0601084307990844D4490844054472
:10108000A80540EA9525354405EA060027EA05014A
:10109000084308990844CE4908440444E00140EA62
:1010A00054642C4404EA050026EA04010843099923
:1010B0000844C84908440744380340EA17572744FE
:1010C00007EA040025EA070108430A990844A0F545
:1010D00024404F380644700440EAD6363E4406EABF
:1010E000070024EA060108430B990844BA4908445A
:1010F0000544A80540EA9525354405EA060027EA97
:10110000050108430C990844B44908440444E0012B
:1011100040EA54642C4404EA050026EA040108432A
:101120000D990844AE4908440744380340EA17576C
:10113000274407EA040025EA070108430E990844FA
:10114000A84908440644700440EAD6363E4406EAFC
:10115000070024EA060108430F990844A2490844FD
:101160000544A80540EA9525354405EA070026EA26
:1011700007010843019908449C490844044460015C
:1011800040EAD4642C4404EA060025EA0601084338
:1011900006990844964908440744780240EAD7571C
:1011A000274407EA050024EA050108430B9908448F
:1011B000904908440644B00340EA96463E4406EA95
:1011C000040027EA04010843009908448A490844B6
:1011D0000544280540EA1535354405EA070026EAA6
:1011E0000701084305990844844908440444600100
:1011F00040EAD4642C4404EA060025EA06010843C8
:101200000A9908447E4908440744780240EAD757BF
:10121000274407EA050024EA050108430F9908441A
:10122000784908440644B00340EA96463E4406EA3C
:10123000040027EA04010843049908447249084459
:101240000544280540EA1535354405EA070026EA35
:1012500007010843099908446C49084404446001A3
:1012600040EAD4642C4404EA060025EA0601084357
:101270000E990844664908440744780240EAD75763
:10128000274407EA050024EA0501084303990844B6
:10129000604908440644B00340EA96463E4406EAE4
:1012A000040027EA04010843089908445A490844FD
:1012B0000544280540EA1535354405EA070026EAC5
:1012C000070108430D990844544908440444600147
:1012D00040EAD4642C4404EA060025EA06010843E7
:1012E000029908444E4908440744780240EAD75717
:1012F000274407EA050024EA050108430799084442
:10130000484908440644B00340EA96463E4406EA8B
:10131000040027EA040108430C99084442490844A0
:101320000544280540EA1535354485EA060078402D
:10133000059908443D4908440444200140EA1474D6
:101340002C4484EA05007040089908443849084450
:101350000744F80240EA5757274487EA04006840E8
:101360000B990844334908440644300440EA1646C1
:101370003E4486EA070060400E9908442E4908441E
:101380000544E80540EA5525354485EA06007840DD
:1013900001990844294908440444200140EA14748E
:1013A0002C4484EA0500704004990844244949E02B
:1013B00078A46AD756B7C7E8DB702024EECEBDC14B
:1013C000AF0F7CF52AC68747134630A8019546FD26
:1013D000D8988069AFF7448BBED75C892211906B97
:1013E000937198FD8E4379A62108B44962251EF6B3
:1013F00040B340C0515A5E26AAC7B6E95D102FD649
:101400005314440281E6A1D8C8FBD3E7E6CDE1211D
:10141000D60737C3870DD5F4ED145A4505E9E3A97E
:10142000F8A3EFFCD9026F678A4C2A8D4239FAFF84
:1014300081F6718722619D6D0C38E5FD44EABEA4FA
:10144000A9CFDE4B08440744F80240EA5757274427
:1014500087EA0400684007990844A54908440644FF
:10146000300440EA16463E4486EA070060400A9986
:101470000844A04908440544E80540EA5525354498
:1014800085EA060078400D9908449B4908440444C5
:10149000200140EA14742C4484EA0500704000994D
:1014A0000844964908440744F80240EA575727443D
:1014B00087EA0400684003990844914908440644B7
:1014C000300440EA16463E4486EA0700604006992A
:1014D00008448C4908440544E80540EA552535444C
:1014E00085EA06007840099908448749084404447D
:1014F000200140EA14742C4484EA050070400C99E1
:101500000844824908440744F80240EA57572744F0
:1015100087EA040068400F9908447D49084406445E
:10152000300440EA16463E4486EA070060400299CD
:101530000844784908440544E80540EA55253544FF
:1015400065EA070070400099084473490844044460
:10155000A00140EA94642C4464EA060068400799BC
:1015600008446E4908440744B80240EA97572744A4
:1015700067EA050060400E9908446949084406443A
:10158000F00340EA56463E4466EA04007840059976
:101590000844644908440544680540EAD5253544B3
:1015A00065EA070070400C9908445F490844044408
:1015B000A00140EA94642C4464EA06006840039960
:1015C00008445A4908440744B80240EA9757274458
:1015D00067EA050060400A990844554908440644F2
:1015E000F00340EA56463E4466EA0400784001991A
:1015F0000844504908440544680540EAD525354467
:1016000065EA07007040089908444B4908440444BF
:10161000A00140EA94642C4464EA060068400F99F3
:101620000844464908440744B80240EA975727440B
:1016300067EA0500604006990844414908440644A9
:10164000F00340EA56463E4466EA040078400D99AD
:1016500008443C4908440544680540EAD52535441A
:1016600065EA070070400499084437490844044477
:10167000A00140EA94642C4464EA060068400B9997
:101680000844324908440744B80240EA97572744BF
:1016900067EA05006040029908442D490844064461
:1016A000F00340EA56463E4466EA04007840099951
:1016B0000844284908440544680540EAD5253544CE
:1016C000D8F800002044C8F80000D8F804002844E6
:1016D000C8F80400D8F808003044C8F80800D8F862
:1016E0000C003844C8F80C0040B0BDE8F08300009E
:1016F000604BBBF670BCBFBEC67E9B28FA27A1EA32
:101700008530EFD4051D880439D0D4D9E599DBE6BE
:10171000F87CA21F6556ACC4442229F497FF2A43E3
:10172000A72394AB39A093FCC3595B6592CC0C8F73
:101730007DF4EFFFD15D84854F7EA86FE0E62CFE3F
:10174000144301A3A111084E827E53F735F23ABD2E
:10175000BBD2D72A91D386EB2DE9F04704460F463A
:1017600015460026B046B1462088C0F3C508C8F12A
:101770004009206800EBC50020602068B0EBC50F71
:1017800002D26068401C6060606800EB5570606069
:101790004D451CD304F1180101EB08004A463946B7
:1017A000FEF7C6FC04F1180104F10800FFF7EAFB9C
:1017B0004E4605E0B91904F10800FFF7E3FB403697
:1017C00006F14000A842F5D94FF0000800E00026DD
:1017D000AA1BB91904F1180303EB0800FEF7A8FCD3
:1017E000BDE8F0872DE9FF4704460D4616469946A9
:1017F00000200390029600278046009002A801F086
:10180000B3FE8DF80C000398C0F30310022800D03B
:101810001FE001A9029800F095F88046029908445B
:101820000290DDE9011047180298381A022800DA00
:101830000FE002A801F098FE8DF80000009800F07B
:101840000100207002A801F08FFE28704FF00108FF
:1018500000BF404604B0BDE8F0872DE9FE4F0546C5
:101860000E4614461F46DDE90C9B00200290CDF881
:1018700004908046824601A801F076FE8DF80800AB
:101880000298C0F30310092800D02CE069460198A3
:1018900000F058F88246019908440190DDE90010F3
:1018A00000EB01080198A8EB0000022800DA1AE01A
:1018B00001A801F060FE2880002020600DE0206873
:1018C000B04202DD4FF0FF3A0DE001A801F04CFEFE
:1018D0002268511C216047F8220001984045EED350
:1018E0004FF0010A00BF5046BDE8FE8F2DE9F843D6
:1018F00005460C46012600270020206000BF4FF05F
:10190000FF38781C0746042801DD00BF17E00121DD
:101910006846A8478046B8F1010F00D00FE09DF857
:10192000001001F07F01206801FB06002060F60135
:101930009DF8000000F080000028E0D100BF38468C
:10194000BDE8F88370B504460D4603480460294697
:101950000248FFF7CBFF70BD740000206932000819
:1019600030B50246002300BF0846CD1701EB556590
:10197000ED11A1EBC515ECB2CD1701EB5565E911E1
:10198000002901DD44F0800418465B1C1454002932
:10199000EADC184630BD0000401C802801DA401CFB
:1019A0000AE0B0F5804F01DA801C05E00349884267
:1019B00001DAC01C00E0001D70470000FFFF1F009F
:1019C0002DE9FC4104460F4615464FF0FF38002034
:1019D00001900026009001212046A847012800D050
:1019E0001EE0012669462846FFF780FF601C00992B
:1019F000FFF7B6FF064400983044B84200DD0FE020
:101A0000009830B1A0190099A8470099884200D0E9
:101A100006E020788DF804000198C0F3031800BF99
:101A20004046BDE8FC8100002DE9FE4305460E4618
:101A30001446029500200190009000274FF0FF38D7
:101A4000204600F0A5F807468146FFF7A5FFB04203
:101A500002DD6FF001088FE000208DF8040001988E
:101A600020F0F000103001909DF8041002A801F061
:101A7000F7FD39460298FFF773FF02990844029078
:101A8000207A042808D13EA102A801F0D5FD042146
:101A900002A801F0E5FD07E03BA102A801F0CCFDA2
:101AA000032102A801F0DCFD00208DF80000A17EDA
:101AB000009861F341000090E07E08B1012100E050
:101AC0000021009861F3820000900098C0F380002C
:101AD00058B194F83D10009861F3C400009094F858
:101AE0003C10009861F345100090206C08B9A06C80
:101AF00020B1009820F0800080300090E06C08B9A0
:101B0000606D20B1009820F04000403000909DF8BA
:101B1000001002A801F0A4FD218B02A801F0A6FD8F
:101B200002A8D4E90423E16801F0B8FDE07E58B1D1
:101B300002A8D4E90A23616A01F0B0FD02A8D4E941
:101B40000D23216B01F0AAFD0098C0F3C01028B14D
:101B500002A8D4E91123216C01F0A0FD0098C0F384
:101B6000801028B102A8D4E91423E16C01F096FD9D
:101B70000298A0EB050800BF4046BDE8FE830000C8
:101B80004D515454000000004D51497364700000E1
:101B900070B504460025207A032801D10C2503E006
:101BA000207A042800D10A25D4E90412E06800F064
:101BB00087FA801C0544E07E68B1D4E90A12606AA5
:101BC00000F07EFA861CD4E90D12206B00F078FA42
:101BD0003044801C0544206C08B9A06C30B1D4E9B5
:101BE0001112206C00F06CFA801C0544E06C08B9FE
:101BF000606D30B1D4E91412E06C00F061FA801C21
:101C00000544284670BD2DE9F04F87B005460F46C4
:101C100090461C46DDE915B6DDE9109A06950020D0
:101C20000590049003900096204612A90EC900F07A
:101C300042F804900290FFF7AFFEB84203DD6FF068
:101C40000100039033E0059820F0F000303005905B
:101C5000059868F3C3000590059864F34200059069
:101C6000059869F3000005909DF8141006A801F08E
:101C7000F7FC04990698FFF773FE0699084406904E
:101C800006A812A90EC901F009FD002C03DD51467A
:101C900006A801F0EBFC324659460698FEF748FAD2
:101CA0000698304406900698401B039000BF0398A6
:101CB00007B0BDE8F08F7FB50546089E002401A857
:101CC00007C800F0FDF9801C30440444002D00DDFD
:101CD000A41C204604B070BD2DE9FF5F05460E46EA
:101CE00017469846DDE90E9A039500200290019070
:101CF000009000245146484600F046F88346019083
:101D0000FFF74AFEB04202DDA01E009038E000203E
:101D10008DF80800029820F0F000803002900298C0
:101D200067F3C3000290029820F00600801C029026
:101D30009DF8081003A801F093FC01990398FFF7A0
:101D40000FFE039908440390414603A801F08EFC5E
:101D500000240FE004EB44000AEB800C03A89CE88D
:101D60000E0001F09BFC109810F8241003A801F05D
:101D700077FC641C4C45EDDB0398401B009000BFD2
:101D8000009804B0BDE8F09F2DE9F04105460E46ED
:101D9000022700240AE004EB440006EB800393E8EA
:101DA000070000F08DF9C01C0744641CAC42F2DB54
:101DB0003846BDE8F08100002DE9F04198B00446B6
:101DC0000D4616461F4658221B4902A8FEF7B0F9D9
:101DD0000594ADF8207001208DF82200129515961B
:101DE00002AA41021548FFF71FFE1FFA80F841467C
:101DF000124801F005FC4FF400711048FEF7B1F9EC
:101E00000F4A4FF400710D48FFF7DAFD02280FD199
:101E100003020A4A694601A8FFF7E4FC012802D13F
:101E20009DF8000018B1012018B0BDE8F08101E074
:101E30000120F9E70020F7E7DC36000894200020B5
:101E40009135000810B540F25B7311A21AA11DA0D4
:101E5000FEF724FD4FF496631CA229A133A0FFF7DF
:101E6000ABFF18B135A000F08BFF0FE03BA000F0F6
:101E700087FF0122002141A000F0DAF818B146A046
:101E800000F07EFF02E04CA000F07AFF10BD0000E1
:101E9000373132343849564253522E696F74636C6D
:101EA0006F75642E74656E63656E746465766963C0
:101EB00065732E636F6D0000313233343433323149
:101EC000000000007465737431323300613138658D
:101ED00065356464376630363864383539323438BD
:101EE00030363839366533323035666133313462F5
:101EF000303961323B686D616373686131000000A5
:101F00005A4430465948314F4E50746573743B31D2
:101F1000323031303132363B384C47305A3B313633
:101F20003439333033363836000000005A443046F6
:101F30005948314F4E507465737400004D515454DC
:101F40002053657276657220436F6E6E65637420F0
:101F50004661696C7572650D0A0000004D5154545C
:101F60002053657276657220436F6E6E65637420D0
:101F7000737563636573730D0A000000246F7461E9
:101F80002F7570646174652F5A4430465948314F3B
:101F90004E502F74657374004F544120546F706914
:101FA0006320537562736372696265204661696C70
:101FB0007572650D0A0000004F544120546F70691E
:101FC000632053756273637269626520737563631E
:101FD0006573730D0A000000F0B58BB005460C4622
:101FE0000020089009900A9008952046FEF7D6F840
:101FF0000746CDE9054008A807C802AB07C3002083
:102000000090034602464FF4007101900748FFF725
:10201000FAFD86B23146054801F0F2FA4FF400713C
:102020000248FEF79EF800200BB0F0BD942000207F
:10203000F7B588B005461446002005900690079035
:10204000059509A805A90122A3B2CDE900210290B6
:1020500000224FF400711848FFF73EFE86B2314669
:10206000154801F0CDFA4FF400711348FEF779F8E6
:10207000124A4FF400711048FFF7A2FC092817D14B
:102080004FF400700C4902AB03AACDE90010012106
:1020900004A8FFF7E2FBC7B237B1BDF81000A042B9
:1020A00002D10298802802D101200BB0F0BD01E0DE
:1020B0000120FAE70020F8E794200020913500087D
:1020C00037B50024009820B10098FEF767F8044661
:1020D00000E0019C20463EBD00BFFEE770470000C7
:1020E00070B5002100230F22C47804B3154C246876
:1020F00004F4E064C4F5E064210AC1F10403CA40B9
:10210000447804FA03F184781440214309010E4C09
:102110000678A155047804F01F050124AC40057829
:102120006D11AD0005F1E025C5F8004109E0047826
:1021300004F01F050124AC40044D0678761145F8E3
:10214000264070BD0CED00E000E400E080E100E01E
:1021500002490143024A1160704700000000FA057D
:102160000CED00E07047000029B1064AD269024335
:10217000044BDA6104E0034AD2698243014BDA611D
:10218000704700000010024029B1064A92690243DC
:10219000044B9A6104E0034A92698243014B9A61BD
:1021A000704700000010024030B5002100220024DA
:1021B00000232D4D6D6805F00C0121B1042905D0D7
:1021C000082923D105E0294D056022E0274D05604F
:1021D0001FE0254D6D6805F47012234D6D6805F400
:1021E0008034022505EB92421CB9214D5543056010
:1021F0000BE01D4D6D6805F400351DB11C4D5543B8
:10220000056002E0194D5543056002E0174D056079
:1022100000BF00BF144D6D6805F0F0010909154DB0
:102220006B5C0568DD4045600F4D6D6805F4E0614D
:10223000090A104D6B5C4568DD4085600A4D6D688C
:1022400005F46051C90A0B4D6B5C4568DD40C56003
:10225000054D6D6805F44041890B074D6B5CC56801
:10226000B5FBF3F5056130BD0010024000127A00A5
:1022700000093D0000000020100000200146074A30
:10228000002008E0135CFF2B00D102E0135C0B542C
:1022900000BF431CD8B21028F4DB7047003C000894
:1022A000704710B500F002F810BD00000CB500201A
:1022B000019000903348006840F480303149086054
:1022C00000BF3048006800F4003000900198401CC6
:1022D0000190009818B90198B0F5A06FF1D1294884
:1022E000006800F4003010B10120009001E00020EF
:1022F00000900098012843D12348006840F0100066
:10230000214908600846006820F00300086008467C
:10231000006840F0020008601A48406819494860A7
:102320000846406848600846406840F4806048605D
:102330000846406820F47C1048600846406840F435
:10234000E81048600846006840F08070086000BFF0
:102350000C48006800F000700028F9D00948406877
:1023600020F00300074948600846406840F002003A
:10237000486000BF0348406800F00C000828F9D10D
:102380000CBD0000001002400020024070B5044661
:102390000D46206800281BD00FA0216800F0F0FC3B
:1023A0002046FEF78DF8032809D12A4614482168F3
:1023B000FEF716F8294613A000F0E2FC02E01EA08A
:1023C00000F0DEFC23A000F0DBFCFFF73BFD02E0A9
:1023D00026A000F0D5FC70BD4669726D776172650C
:1023E0002053697A653A25642042797465732C44D8
:1023F0006F776E6C6F6164696E672E2E2E0D0A000A
:1024000000A000084F5441204669726D77617265E3
:10241000204D44353A25730D0A4669726D77617215
:102420006520446F776E6C6F6164205375636365DC
:1024300073730D0A000000004669726D7761726562
:1024400020446F776E6C6F6164204661696C7572B1
:10245000650D0A004C6F67696E204D51545420532E
:1024600065727665722E2E2E0D0A00005468652066
:1024700075706461746564206669726D77617265F8
:1024800020776173206E6F74206F627461696E656E
:10249000640D0A00042808D14FF0E021096941F0D9
:1024A00004014FF0E022116107E04FF0E0210969DB
:1024B00021F004014FF0E0221161704770470000E5
:1024C00010B51348006840F0010011490860084643
:1024D0004068104908400E494860084600680E49A7
:1024E00008400B4908600846006820F48020086016
:1024F0000846406820F4FE0048604FF41F008860E2
:10250000FFF7CFFE4FF000600449086010BD0000E7
:10251000001002400000FFF8FFFFF6FE08ED00E0AB
:1025200010B50121094800F04AF870B101210748AF
:1025300000F036F80021054800F035F80021034886
:1025400000F057F801200249087010BD002C01402E
:102550008400002010B50121880700F030F818B180
:102560000121880700F01CF810BD000010B5012102
:10257000094800F024F870B10121074800F010F874
:102580000021054800F00FF80021034800F031F861
:1025900001200249087010BD000400408C1000208A
:1025A000CA430282704721B1028842F001020280D0
:1025B00004E002884FF6FE731A400280704730B57F
:1025C0000246002000230024158A05EA01039589AC
:1025D00005EA010413B10CB1012000E0002030BD78
:1025E0001AB183890B43838102E083898B43838102
:1025F0007047818470470000002202881D4B98427A
:102600000ED01D4B98420BD0B0F1804F08D01B4B21
:10261000984205D01A4B984202D01A4B984204D1E6
:102620004FF68F731A404B881A43174B984207D0C6
:10263000164B984204D04FF6FF431A40CB881A43FA
:1026400002808B8883850B8803850A4B98420BD0C8
:10265000094B984208D00E4B984205D00D4B98423A
:1026600002D00D4B984201D10B7A0386012383825D
:1026700070470000002C014000340140000400407D
:1026800000080040000C0040001000400014004012
:102690000040014000440140004801407FB504462D
:1026A0000D4616462C48844212D10121C014FFF772
:1026B0006BFD19208DF8000001208DF803008DF8C6
:1026C000010000208DF802006846FFF709FD29E0AF
:1026D000B4F1804F11D101210846FFF745FD1C20C0
:1026E0008DF8000001208DF803008DF801008DF8B1
:1026F00002006846FFF7F4FC14E01848844211D148
:1027000001210220FFF730FD1D208DF8000001207F
:102710008DF803008DF8010002208DF80200684654
:10272000FFF7DEFC0020ADF80A00ADF80600ADF8BA
:102730000860ADF804508DF80C0001A92046FFF7A1
:102740005BFF012211462046FFF74AFF0121204688
:10275000FFF726FF7FBD0000002C01400004004071
:1027600010B540F22551184800F081F830B31648F2
:1027700000F038F9C4B215484068B0F5805F1ED249
:1027800013480078D8B900211248FFF732FF0F48EC
:10279000406848B901210F48FFF705FF41F20101E8
:1027A0000B48401CFDF7DDFC08484168A0F6FF70AF
:1027B000445406484068401C0449486002E0012037
:1027C0000349087010BD000000380140841000204B
:1027D00084000020002C014010B540F22551134820
:1027E00000F045F800B3114800F0FCF8C4B21048FE
:1027F0004068B0F5805F14D200210E48FFF7F9FE63
:102800000B48406818B901210A48FFF7CCFE084878
:1028100042684068401C06494860A1F6FF70845435
:1028200002E001200449087010BD0000004800408B
:102830008C200020000400408C10002021B18289EF
:1028400042F40052828104E082894DF6FF731A40FF
:102850008281704702460020B1F5007F00D100BFA1
:1028600013880B400BB1012000E00020704770B5C9
:102870000246002400230025002040F66A16B142DB
:1028800000D100BFC1F3421501F01F03012606FA73
:1028900003F3012D02D19689334006E0022D02D1C7
:1028A000168A334001E0968A33400C12012606FA5C
:1028B00004F41688344013B10CB1012000E000206C
:1028C00070BDF0B50346002400260025002040F628
:1028D0006A17B94200D100BF1846C1F3421401F093
:1028E0001F06012707FA06F5012C01D10C3004E080
:1028F000022C01D1103000E014301AB107682F43C8
:10290000076002E00768AF430760F0BD2DE9F047BC
:1029100086B005460E460024A24600BFA146002709
:10292000B08900B100BF2F462C8A4CF6FF700440DE
:10293000F08804432C82AC894EF6F3100440B08832
:1029400031890843718908430443AC81AC8A4FF64E
:10295000FF400440B0890443AC8201A8FFF724FC87
:102960001F48874202D1DDF810A001E0DDF80CA07D
:10297000A88900F4004040B10AEBCA0000EB0A103D
:1029800031684900B0FBF1F807E00AEBCA0000EB40
:102990000A1031688900B0FBF1F86420B8FBF0F050
:1029A00004012009642101FB1089A88900F400407A
:1029B00040B1322000EBC900B0FBF1F000F007009D
:1029C000044308E0322000EB09106421B0FBF1F071
:1029D00000F00F0004432C8106B0BDE8F087000032
:1029E0000038014001468888C0F308007047C1F3F1
:1029F000080282807047000030B587B004460D465B
:102A0000574884422BD1012144F20400FFF7BCFB5C
:102A100018208DF81B006015ADF8180003208DF804
:102A20001A0006A94F48FEF740F804208DF81B0055
:102A30000002ADF8180006A94A48FEF736F825202E
:102A40008DF8040001208DF8070002208DF80500A4
:102A500000208DF8060001A8FFF742FB62E0424823
:102A600084422ED101210420FFF78EFB012148046E
:102A7000FFF77AFB18208DF81B000420ADF8180032
:102A800003208DF81A0006A93648FEF70EF8042038
:102A90008DF81B000820ADF8180006A93148FEF794
:102AA00004F826208DF8040001208DF8070002208C
:102AB0008DF8050001208DF8060001A8FFF710FB36
:102AC00030E02A4884422DD101210820FFF75CFB29
:102AD00001218804FFF748FB18208DF81B00201502
:102AE000ADF8180003208DF81A0006A92048FDF75C
:102AF000DCFF04208DF81B004002ADF8180006A989
:102B00001B48FDF7D2FF27208DF8040001208DF827
:102B1000070002208DF8050001208DF8060001A8AD
:102B2000FFF7DEFA02950020ADF814000C20ADF896
:102B300012000020ADF81000ADF80E00ADF80C004A
:102B400002A92046FFF7E2FE012240F2255120466D
:102B5000FFF7B7FE01212046FFF770FE07B030BD3A
:102B60000038014000080140004400400048004097
:102B7000000C01402DE9F04107460D4616460024A1
:102B80000CE0295D3846FFF732FF00BF8021384650
:102B9000FFF760FE0028F9D0601C84B2B442F0DB7D
:102BA000BDE8F08170B505460C460BE0217828465B
:102BB000FFF71DFF00BF80212846FFF74BFE0028CE
:102BC000F9D0641C20780028F0D170BD70B504469F
:102BD0000D462946201DFDF7E8FA002848D126A019
:102BE00000F0CEF8208882B22D492E4800F094FBE8
:102BF0002A462C482168FDF7F3FB29462AA000F05D
:102C0000BFF82946201DFDF7D0FA00282CD1254811
:102C1000406800F07F40B0F1006F25D126A000F0A1
:102C2000AFF80020206000F045FB04F5A06004F53B
:102C3000AF6191E84C00C968C0E91B368266416704
:102C4000002240F225512048FFF73BFE2046FEF7C8
:102C500007F804F5AF6000F089F81CA000F090F8C8
:102C6000104800F043FB06E01DA000F089F802E0E8
:102C700021A000F085F870BD4F5441204669726D67
:102C800077617265204D4435204F4B0D0A557064B5
:102C9000617465204150502E2E2E0D0A0000000058
:102CA00000A0000800400008415050204D44353A33
:102CB00025730D0A00000000415050204D4435207E
:102CC0004F4B0D0A00000000004800404A756D702F
:102CD0002052756E204150502E2E2E0D0A000000FD
:102CE00055706461746520415050204661696C756F
:102CF00072650D0A000000004F5441204669726D54
:102D000077617265204D4435204572726F720D0AED
:102D10000000000000BFFEE710B542F2107247212C
:102D20000C48FFF7BBFC4FF4E1310B48FFF764FEA2
:102D300042F2107247210948FFF7B0FC4FF4E1312D
:102D40000748FFF759FE0020064908700649087039
:102D500010BD0000002C014000380140000400407C
:102D600000480040840000208C10002010B504466C
:102D700010222146014800F0CFFA10BD003C0008A7
:102D80000FB4054B10B503A9044A029800F036F8B9
:102D900010BC5DF814FB0000913200087C0000209C
:102DA0000FB47CB50C0009AD01D0611E00E000211C
:102DB000CDE90001064B6A462946089800F01EF846
:102DC000002C02D0009A002111707CBC5DF814FB2D
:102DD00053320008004870478000002002E008C815
:102DE000121F08C1002AFAD170477047002001E085
:102DF00001C1121F002AFBD1704700002DE9FF4FCF
:102E00008DB00F460546002606E025280BD0DDE9EB
:102E10000F1290476D1C761C28780028F5D111B050
:102E20003046BDE8F08F0024A246A1460122E949C0
:102E300000E0044315F8013F203B02FA03F008428A
:102E4000F7D128782A2810D06FF02F022878A0F127
:102E50003001092914D80AEB8A0102EB410144F040
:102E6000020400EB010A6D1CF0E701CF5FEA000AE3
:102E700003D544F40054CAF1000A44F002046D1C66
:102E800028782E2817D115F8010F44F004042A28B9
:102E90000ED06FF02F022878A0F1300109290AD84E
:102EA00009EB890102EB410100EB01096D1CF2E71E
:102EB00057F8049B6D1C28786C280FD006DC4C2832
:102EC00017D068280DD06A2814D104E0742810D0D7
:102ED0007A280FD10DE044F400140AE044F4801481
:102EE00001E044F440146978814202D104F5801471
:102EF0006D1C6D1C28786E281ED00CDC632830D029
:102F000004DC00288BD0582811D19FE0642867D0BA
:102F100069280CD164E073282DD004DC6F2872D0AE
:102F2000702804D194E075286ED078286DD0DDE942
:102F30000F129047761C4BE1C4F30250022806D0D2
:102F4000032809D0042801CF09D0066040E101CF51
:102F5000F117C0E900613BE101CF068038E106705E
:102F600036E117F8040B8DF8000000208DF8010001
:102F7000EB46012003E057F804BB4FF0FF30610738
:102F80004FF0000102D40DE008F1010188464945E7
:102F90000FDA8045F8DB1BF808100029F4D108E0AF
:102FA00008F1010188468142FADB1BF8081000296C
:102FB000F6D1DDE90F23AAEB08008146214600F097
:102FC00031F9304400EB080604E0DDE90F121BF88C
:102FD000010B9047B8F10108F7D221464846F2E0CC
:102FE0000A21C4F302524FF0000B0891022A04D0C8
:102FF00001CFC117032A09D00AE0FF1D27F00707F8
:10300000F7E8020108E02CE01EE01FE000B2C11763
:10301000042A01D140B2C117021E71F1000206DA82
:103020000023D0EB030063EB01012D2202E0220517
:1030300004D52B228DF82420012203E0E20701D0E1
:103040002022F7E7904653E00A210BE0102109E027
:1030500010214FF0000B44F004044FF008090891D0
:1030600003E008214FF0000B0891C4F30252022A3A
:1030700004D001CF0021032A06D006E0FF1D27F06F
:103080000707F7E8020103E080B2042A00D1C0B2CA
:103090004FF0000822072BD52A78702A07D0DDF8D8
:1030A00020C08CF0100C5CEA0B0C05D00EE0402226
:1030B0008DF82420012208E050EA010306D03023D5
:1030C0008DF824308DF8252002229046089B83F04D
:1030D000080353EA0B030BD150EA010201D1620746
:1030E00006D530228DF824204FF00108A9F10109FE
:1030F0002A78582A04D038A20B9208AA0A920BE028
:103100003AA2F9E75B46089AFDF76AF80B9B9B5CCD
:103110000A9A521E0A92137050EA0102F2D10A98DA
:10312000ADEB000000F1200B600702D524F48034E1
:1031300001E04FF00109D94502DDA9EB0B0000E0E9
:10314000002000EB0B0141440890AAEB010AE003C8
:1031500006D4DDE90F232146504600F063F806440B
:103160004FF0000908E009A911F80900DDE90F1284
:10317000904709F10109761CC145F4DBE0030CD549
:10318000DDE90F232146504600F04CF8064404E0E8
:10319000DDE90F1230209047761C0899481E0890F0
:1031A0000029F5DC08E00A980A990078491C0A9180
:1031B000DDE90F129047761CBBF10001ABF1010B6A
:1031C000F1DC21465046DDE90F2300F019F80644F2
:1031D0006D1C21E609280100303132333435363791
:1031E0003839616263646566000000003031323353
:1031F00034353637383941424344454600000000F3
:103200002DE9F041044600251E461746880404D4E3
:1032100005E039462020B0476D1C641EF9D52846CC
:10322000BDE8F0812DE9F041044600251E46904698
:10323000C80301D5302700E02027880404D505E025
:1032400041463846B0476D1C641EF9D52846BDE896
:10325000F0814A68002A06D00A68531C0B6010707F
:103260004868401E4860704710B50246002309E0D8
:10327000064800680078107004480068401C034C41
:1032800020605B1C8B42F3DB084610BD74000020FD
:1032900070B504460D46A1B20548FFF7A8FB00BF74
:1032A00080210348FFF7D6FA0028F9D0204670BDE8
:1032B0000038014070B5182628253F2D00DD70BD6F
:1032C000FDF7D4FB3420FDF74BFB2C4607E04FF015
:1032D000006101EB8420FDF749FB601C84B2A81952
:1032E000A042F4DCFDF782FB00BFE8E710B504461E
:1032F000206807490840B0F1005F08D160680549BF
:1033000008602068FCF7FEFE02480068804710BD98
:103310000000FE2F2C0000202DE9F0478046894652
:1033200014464FF0000AB4F5806F01DA01250EE073
:103330002046E11704EB9151C1F38F25E11704EB0F
:1033400091518912A4EB812109B1681C85B2C8F39F
:103350008F263F2E01DDBDE8F087FDF787FB342087
:10336000FDF7FEFA374607E04FF0006101EB8720DA
:10337000FDF7FCFA781C87B27019B842F4DCCA4633
:10338000002708E008EB0700DAF80010FDF738FB2B
:103390000AF1040A3F1DA742F4D3FDF727FB00BF43
:1033A000D9E70000ADF5BF6DFDF742F84FF4A0601E
:1033B000FEF7CEFEFDF756FD0020FDF701FC0128CB
:1033C00020D1FFF7A9FC3DA0FFF7DAFCFEF73AFD9C
:1033D0000DF5BB60FEF752FF0DF5BB60FCF7DEFE9E
:1033E00050B93BA0FFF7CCFC45A00068CDF8D8054C
:1033F0000DF5BB60FFF7BAFC0DF5BB614148FFF767
:10340000BFFC02E04048FFF771FF55E03F480078FD
:1034100001283AD1002009E03C49491C095C19B94E
:1034200030223A49491C0A54411C88B2384949683B
:103430008142F1D237A13548401CFCF79DFEA8B966
:103440001CA93248401CFDF755FC58B10DF5BD6074
:10345000B6A9CDE9001036AB1DAA33481C99FFF779
:103460008FFC06E031A0FFF78BFC02E035A0FFF7F0
:1034700087FC00202549087000212548416041F261
:103480000101A0F6FF70FCF76CFE0020FDF798FB31
:103490000446022C03D11CA8FDF7E2FB0CE0032C30
:1034A00004D103A91CA8FEF771FF05E0042C03D189
:1034B00003A91CA8FFF78AFBA8E7000052756E203D
:1034C000426F6F744C6F616465722E2E2E0D0A0070
:1034D000546865204150502076657273696F6E2084
:1034E000776173206E6F74207772697474656E2CC7
:1034F0005772697474696E672E2E2E0D0A000000D3
:10350000312E3000BC370008004000088C1000202D
:103510008C2000207265706F72745F7665727369BB
:103520006F6E5F7273700000603800084E6F6E65DA
:1035300020757064617465206669726D776172656B
:103540000D0A000055706C6F6164206669726D77BA
:103550006172652076657273696F6E20737563633F
:103560006573730D0A00000001460A6810780A6846
:10357000521C0A60704730B501460A6853781478C7
:103580004FF4807505FB04300B689B1C0B6030BD4D
:1035900070B506460C46002504E00A20FCF76AFFD9
:1035A000681C85B21348007808B9C82DF5DD642D74
:1035B00001DD012070BD00250E48401C0E4A128816
:1035C000811822463046FCF7B3FD0B4800882044A2
:1035D00009490880094840680988884208D80020BD
:1035E0000449087000210548416000200249088014
:1035F0002046DFE78C100020780000208C2000207F
:1036000070B505460C46002008490870002108489E
:10361000416041F20101A0F6FF70FCF7A2FDA2B2E9
:1036200029460448FFF7A6FA204670BD8C100020FA
:103630008C2000200048004070B504460E463046FD
:10364000FCF7ACFD05462946204600F00FF82A4657
:1036500031462068FCF76CFD20682844206070BD6E
:10366000026811700268521C0260704710B50A4669
:10367000CB1701EB13631B0A046823700268521C0A
:1036800002600A46CB1701EB13631B12A1EB032365
:10369000046823700268521C026010BD1FB5044606
:1036A000029800280DDD20460299FFF7DFFFDDE9D3
:1036B00002212068FCF73CFD206802990844206044
:1036C0000AE0019820B120460199FFF7B5FF03E019
:1036D00000212046FFF7CAFF1FBD00004D51544393
:1036E00000000000040000000000000000000000D6
:1036F000000000003C0001004D5154570000000044
:1037000000000000000000000000000000000000B9
:1037100000000000000000000000000000000000A9
:103720000000000000000000000000000000000099
:1037300000000000004040404040404040404141C7
:103740004141414040404040404040404040404076
:103750004040404040050202020202020202020210
:10376000020202020220202020202020202020020D
:10377000020202020202909090909090101010109D
:103780001010101010101010101010101010101039
:1037900002020202020288888888888808080808CD
:1037A0000808080808080808080808080808080899
:1037B0000202020240000000353700080D0A2A2AE2
:1037C0002A2A2A2A2A2A2A2A2A2A2A2A2A2A2A2A59
:1037D0002A2A2A2A2A2A2A2A2A2A0D0A4375727292
:1037E000656E74204669726D7761726520566572E8
:1037F00073696F6E3A25730D0A53332D2D3E47655D
:1038000074204F5441204669726D776172650D0ACC
:1038100053342D2D3E446F776E6C6F6164204F548E
:1038200041204669726D776172650D0A53352D2D01
:103830003E557064617465204150500D0A2A2A2A51
:103840002A2A2A2A2A2A2A2A2A2A2A2A2A2A2A2AD8
:103850002A2A2A2A2A2A2A2A2A0D0A0D0A000000C0
:103860000D0A2A2A2A2A2A2A2A2A2A2A2A2A2A2AF5
:103870002A2A2A2A2A2A2A2A2A2A2A2A2A2A0D0AE5
:1038800020204F5441204669726D7761726520494E
:103890006E666F6D6174696F6E20200D0A66696CCB
:1038A000655F73697A653A25640D0A6D64357375D1
:1038B0006D3A25730D0A75726C3A25730D0A686F9F
:1038C00073743A25730D0A76657273696F6E3A25C3
:1038D000730D0A2A2A2A2A2A2A2A2A2A2A2A2A2A3C
:1038E0002A2A2A2A2A2A2A2A2A2A2A2A2A2A2A0D55
:1038F0000A0D0A00143900080000002084000000AE
:10390000DC2D00089839000884000020142A0000EB
:10391000EC2D000800000000010203040102030472
:1039200006070809020406080000000000A24A0475
:10393000000000000000000001020304060708095F
:1039400000000000018000000000000000000000F6
:103950000000000000000000000000000000000067
:103960000000000000000000000000000000000057
:103970000000000000000000000000000000000047
:103980000000000000000000000000000000000037
:0839900000000000000000002F
:04000005080000ED02
:00000001FF
